:020000040000FA
:040000005AEF11F0B2
:10060000003F065B4F666D7D077F6F777C395E79B3
:10061000717A797877767574737271706F6E6D6CAC
:100620006B6A696867666564636261393837363555
:100630003433323130313233343536373839616220
:10064000636465666768696A6B6C6D6E6F70717202
:10065000737475767778797A00000450800B0D6E8C
:10066000045004240F6E03AE38EF03F03AEF03F0AA
:100670003BEF03F00F800F50D8B441EF03F043EF8E
:1006800003F058EF03F00F28D8A449EF03F04BEF25
:1006900003F053EF03F0000E016E000E026E000E29
:1006A000036E000E046E038E000E046E60EF03F006
:1006B000000E016E000E026E000E036E000E046E40
:1006C0000850800B0E6E0D500E18D8B46AEF03F070
:1006D0006CEF03F06DEF03F00D8C085008240E6EE4
:1006E00007AE75EF03F077EF03F078EF03F00E80BD
:1006F0000E50D8B47EEF03F080EF03F095EF03F0D7
:100700000E28D8A486EF03F088EF03F090EF03F0F3
:10071000000E056E000E066E000E076E000E086ECF
:10072000078E000E086E9DEF03F0000E056E000EA2
:10073000066E000E076E000E086E0F500E5CD8B0ED
:10074000A4EF03F0A6EF03F0CDEF03F00DACABEF99
:1007500003F0ADEF03F0AFEF03F0800E0D1A0FC002
:1007600010F00EC00FF010C00EF001C010F005C068
:1007700001F010C005F002C010F006C002F010C079
:1007800006F003C010F007C003F010C007F004C06B
:1007900010F008C004F010C008F0000E106E0F50EA
:1007A0000EC009F00A6A095E000E0A5A0ABEE2EF9C
:1007B00003F00A5009E11A0E095CD8A0E2EF03F039
:1007C000E4EF03F01BEF04F00150021003100410DB
:1007D000D8A4EDEF03F0F0EF03F0010EF1EF03F01A
:1007E000000E106E000E016E000E026E000E036E03
:1007F000000E046E0EC00FF024EF04F010A003EF03
:1008000004F005EF04F00BEF04F0D890103001096C
:10081000106E0DEF04F0D890103201A012EF04F02A
:1008200014EF04F015EF04F0108E04340432033298
:10083000023201320F2A0E500F5CD8A022EF04F0D2
:1008400024EF04F0FEEF03F00DBC29EF04F02BEFD2
:1008500004F06BEF04F00F50D8A431EF04F033EF45
:1008600004F03DEF04F0000E016E000E026E000E6B
:10087000036E000E046E8CEF05F005500126065045
:100880000222075003220850042204A04AEF04F079
:100890004CEF04F0F8EF04F010A051EF04F053EF28
:1008A00004F059EF04F0D89010300109106E5BEF9E
:1008B00004F0D890103201A060EF04F062EF04F071
:1008C00063EF04F0108E043404320332023201323A
:1008D0000F2AF8EF04F00550015C0650025807504B
:1008E00003580450800A096E0850800A0958D8B08D
:1008F0007CEF04F07EEF04F0A9EF04F00150055CFA
:10090000096E025006580A6E035007580B6E0450C9
:1009100008580C6EFF0E0924016EFF0E0A20026EAD
:10092000FF0E0B20036EFF0E0C20046E800E0D1ABE
:10093000106C1050D8A49FEF04F0A1EF04F0B1EFB9
:1009400004F0010E0126000E022203220422B1EF60
:1009500004F00550015E0650025A0750035A085031
:10096000045A0150021003100410D8A4BAEF04F086
:10097000BCEF04F0F1EF04F01050D8A4C2EF04F083
:10098000C4EF04F0F1EF04F0000E016E000E026EF1
:10099000000E036E000E046E8CEF05F0D890013649
:1009A00002360336043610AED8EF04F0DAEF04F066
:1009B000DBEF04F0018010A0E0EF04F0E2EF04F0C0
:1009C000E6EF04F0D8801036E8EF04F0D890103647
:1009D0000F50D8B4EEEF04F0F0EF04F0F1EF04F0B4
:1009E0000F0603AEF6EF04F0F8EF04F0CEEF04F0DC
:1009F000000E0E6E10AEFFEF04F001EF05F019EFE0
:100A000005F010C009F07F0E0916D8B40AEF05F002
:100A10000CEF05F010EF05F0010E0E6E19EF05F06A
:100A200001A015EF05F017EF05F019EF05F00CEF39
:100A300005F00E50D8B41FEF05F021EF05F04CEF94
:100A400005F0010E0126000E02220322042204A05A
:100A50002CEF05F02EEF05F04CEF05F001C009F08A
:100A600002C00AF003C00BF004C00CF00C340C32CE
:100A70000B320A32093209C001F00AC002F00BC081
:100A800003F00CC004F00F28D8B449EF05F04BEF89
:100A900005F04CEF05F00F2A0F28D8B452EF05F0FF
:100AA00054EF05F05CEF05F00F50D8A45AEF05F0B5
:100AB0005CEF05F06EEF05F0000E016E000E026EA9
:100AC000000E036E000E046E0F50D8A46AEF05F0FE
:100AD0006CEF05F06EEF05F0000E0D6E0FA073EFDA
:100AE00005F075EF05F078EF05F0038E79EF05F06E
:100AF000039ED8900F30046E0DAE81EF05F083EFAA
:100B000005F084EF05F0048E01C001F002C002F090
:100B100003C003F004C004F012003BEC0FF00DC062
:100B200013F00EC014F0270E166E100E156EA4EC06
:100B30000DF013C07EF014C07FF07E06D8A07F06B3
:100B40007EC009F07FC00AF0460E0B6E000E0C6EE0
:100B5000000E0E6E0A0E0D6E03EC0AF0000E4A6EC9
:100B6000000E4B6E000E4C6E000E4D6E4AC001F032
:100B70004BC002F04CC003F04DC004F0000E056EF7
:100B8000000E066E480E076E430E086EE5EC0BF085
:100B9000D8A0CDEF05F0CFEF05F0D1EF05F0ACEF29
:100BA00006F0000E196E7EC001F07FC002F0030E49
:100BB000046EE80E036E42EC0DF0015087EC11F06C
:100BC000010E196E000E046E640E036E7EC001F0FD
:100BD0007FC002F042EC0DF001C013F002C014F02F
:100BE000000E166E0A0E156EA4EC0DF0135087EC75
:100BF00011F0020E196E000E046E0A0E036E7EC016
:100C000001F07FC002F042EC0DF001C013F002C011
:100C100014F0000E166E0A0E156EA4EC0DF01350B3
:100C200087EC11F0030E196E7EC013F07FC014F034
:100C3000000E166E0A0E156EA4EC0DF0135087EC24
:100C400011F0B2EC0AF0000E4E6E000E4F6E000E68
:100C5000506E000E516E4EC001F04FC002F050C0F9
:100C600003F051C004F0000E056E000E066EC80EB3
:100C7000076E420E086EE5EC0BF0D8A042EF06F0CE
:100C800044EF06F046EF06F079EF06F04EC001F0B3
:100C90004FC002F050C003F051C004F0000E056ECA
:100CA000000E066E800E076E3F0E086E2DEC03F0F0
:100CB00001C04EF002C04FF003C050F004C051F02C
:100CC0004EC001F04FC002F050C003F051C004F01C
:100CD000000E056E000E066EC80E076E420E086E00
:100CE000E5EC0BF0D8A077EF06F079EF06F046EFD1
:100CF00006F04AC001F04BC002F04CC003F04DC0FA
:100D000004F0000E056E000E066E800E076E3F0E9C
:100D1000086E2DEC03F001C04AF002C04BF003C096
:100D20004CF004C04DF04AC001F04BC002F04CC082
:100D300003F04DC004F0000E056E000E066E480E66
:100D4000076E430E086EE5EC0BF0D8A0AAEF06F094
:100D5000ACEF06F0D1EF05F0000E026E020E016E50
:100D6000000E046E000E036E1DEC08F0000E026E05
:100D7000030E016E000E046E000E036E1DEC08F0F3
:100D8000000E026E040E016E000E046E000E036E65
:100D90001DEC08F0000E026E050E016E000E046ED2
:100DA000000E036E1DEC08F046504718D8A4DBEF88
:100DB00006F0DDEF06F0F3EF06F049504818D8A42E
:100DC000E4EF06F0E6EF06F0F3EF06F048504718C0
:100DD000D8A4EDEF06F0EFEF06F0F3EF06F0A8EC85
:100DE0000FF0F5EF06F042EC10F0120002BE04EF37
:100DF00007F0025007E1080E015CD8B002EF07F0DF
:100E000004EF07F02EEF07F003500410D8B40BEFF7
:100E100007F00DEF07F01DEF07F001C005F0010E20
:100E2000066E052A16EF07F0D8900636052E14EF49
:100E300007F0065092121CEF08F001C005F0010EF9
:100E4000066E052A26EF07F0D8900636052E24EF09
:100E500007F00650FF0A92161CEF08F002BE3CEFA6
:100E600007F0025007E1100E015CD8B03AEF07F02E
:100E70003CEF07F06AEF07F003500410D8B443EFDB
:100E800007F045EF07F057EF07F001C005F0F80E47
:100E90000526010E066E052A50EF07F0D89006369B
:100EA000052E4EEF07F0065093121CEF08F001C01C
:100EB00005F0F80E0526010E066E052A62EF07F012
:100EC000D8900636052E60EF07F00650FF0A9316FD
:100ED0001CEF08F002BE78EF07F0025007E1180E91
:100EE000015CD8B076EF07F078EF07F0A6EF07F0D7
:100EF00003500410D8B47FEF07F081EF07F093EFB1
:100F000007F001C005F0F00E0526010E066E052A59
:100F10008CEF07F0D8900636052E8AEF07F00650C2
:100F200094121CEF08F001C005F0F00E0526010E2A
:100F3000066E052A9EEF07F0D8900636052E9CEF28
:100F400007F00650FF0A94161CEF08F002BEB4EF3B
:100F500007F0025007E1200E015CD8B0B2EF07F0B5
:100F6000B4EF07F0E2EF07F003500410D8B4BBEF82
:100F700007F0BDEF07F0CFEF07F001C005F0E80E76
:100F80000526010E066E052AC8EF07F0D890063632
:100F9000052EC6EF07F0065095121CEF08F001C0B1
:100FA00005F0E80E0526010E066E052ADAEF07F0B9
:100FB000D8900636052ED8EF07F00650FF0A951692
:100FC0001CEF08F002BEF0EF07F0025007E1280E18
:100FD000015CD8B0EEEF07F0F0EF07F01CEF08F07F
:100FE00003500410D8B4F7EF07F0F9EF07F00BEF58
:100FF00008F001C005F0E00E0526010E066E052A78
:1010000004EF08F0D8900636052E02EF08F00650DF
:1010100096121CEF08F001C005F0E00E0526010E47
:10102000066E052A16EF08F0D8900636052E14EF46
:1010300008F00650FF0A9616120002BE2BEF08F0C9
:10104000025007E1080E015CD8B029EF08F02BEF41
:1010500008F055EF08F003500410D8B432EF08F050
:1010600034EF08F044EF08F001C005F0010E066E01
:10107000052A3DEF08F0D8900636052E3BEF08F024
:101080000650801243EF09F001C005F0010E066E14
:10109000052A4DEF08F0D8900636052E4BEF08F0E4
:1010A0000650FF0A801643EF09F002BE63EF08F016
:1010B000025007E1100E015CD8B061EF08F063EF59
:1010C00008F091EF08F0F80E0126FF0E02220350FF
:1010D0000410D8B46EEF08F070EF08F080EF08F05D
:1010E00001C005F0010E066E052A79EF08F0D890D0
:1010F0000636052E77EF08F00650811243EF09F00F
:1011000001C005F0010E066E052A89EF08F0D8909F
:101110000636052E87EF08F00650FF0A811643EFCA
:1011200009F002BE9FEF08F0025007E1180E015CC3
:10113000D8B09DEF08F09FEF08F0CDEF08F0F00E6B
:101140000126FF0E022203500410D8B4AAEF08F0C3
:10115000ACEF08F0BCEF08F001C005F0010E066E20
:10116000052AB5EF08F0D8900636052EB3EF08F043
:101170000650821243EF09F001C005F0010E066E21
:10118000052AC5EF08F0D8900636052EC3EF08F003
:101190000650FF0A821643EF09F002BEDBEF08F0AB
:1011A000025007E1200E015CD8B0D9EF08F0DBEF68
:1011B00008F009EF09F0E80E0126FF0E02220350A5
:1011C0000410D8B4E6EF08F0E8EF08F0F8EF08F004
:1011D00001C005F0010E066E052AF1EF08F0D89067
:1011E0000636052EEFEF08F00650831243EF09F0A4
:1011F00001C005F0010E066E052A01EF09F0D89036
:101200000636052EFFEF08F00650FF0A831643EF5F
:1012100009F002BE17EF09F0025007E1280E015C49
:10122000D8B015EF09F017EF09F043EF09F0E00E21
:101230000126FF0E022203500410D8B422EF09F059
:1012400024EF09F034EF09F001C005F0010E066E3D
:10125000052A2DEF09F0D8900636052E2BEF09F060
:101260000650841243EF09F001C005F0010E066E2E
:10127000052A3DEF09F0D8900636052E3BEF09F020
:101280000650FF0A8416120083CF06F00F0E951247
:10129000000E0A6EF80E93160AC001F0010E026EDF
:1012A000012A55EF09F0D8900236012E53EF09F0CC
:1012B00002509312070E81120AC001F0010E026E55
:1012C000012A65EF09F0D8900236012E63EF09F08C
:1012D0000250FF0A8116000E086E000E076E074AC4
:1012E000082A08BE7DEF09F0085009E10A0E075CE4
:1012F000D8A07DEF09F07FEF09F06FEF09F0000E45
:10130000096E09C001F0010E026E012A8AEF09F090
:10131000D8900236012E88EF09F00250831400099C
:10132000D8A495EF09F097EF09F0B0EF09F00A5053
:10133000040DF3500924016E010E026E000E036EBF
:10134000012AA6EF09F0D89002360336012EA3EF4A
:1013500009F002500001EB130350EC13CBEF09F03E
:101360000A50040DF3500924016E010E026E000EA6
:10137000036E012ABFEF09F0D89002360336012E22
:10138000BCEF09F0021C046E031C056E0450000142
:10139000EB170550EC17092A030E0964D2EF09F088
:1013A000D4EF09F081EF09F00A2A020E0A64DBEF9C
:1013B00009F0DDEF09F04AEF09F0EB51E91907E117
:1013C000EC51EA19D8A4E7EF09F0E9EF09F0ECEFE6
:1013D00009F0F507F2EF09F00A0EF56FEBC0E9F03E
:1013E000ECC0EAF0F551D8A4F8EF09F0FAEF09F0F3
:1013F000FEEF09F0E9C0EDF0EAC0EEF006C083FFB1
:10140000000E956E12000EBE0FEF0AF00E5009E1AD
:10141000020E0D5CD8A00FEF0AF011EF0AF01FEFDB
:101420000AF00EBE1DEF0AF00E5009E1250E0D5C0C
:10143000D8A01DEF0AF01FEF0AF027EF0AF00BC04B
:10144000D9FF0CC0DAFF000EDF6EB1EF0AF00BC05F
:1014500016F00CC017F00BC014F00CC015F009C04A
:1014600012F00AC013F009C001F00AC002F00DC06A
:1014700003F00EC004F042EC0DF001C009F002C010
:101480000AF009C001F00AC002F00DC003F00EC05E
:1014900004F0AFEC12F0110E0F6E060E106E01503C
:1014A0000F5E0250105A12500F2613501022230EB6
:1014B0000F26000E10220FC0F6FF10C0F7FF16C057
:1014C000D9FF17C0DAFF0800F5CFDFFF164A172A49
:1014D00009500A10D8A46FEF0AF071EF0AF02FEF4D
:1014E0000AF013BE78EF0AF076EF0AF080EF0AF008
:1014F00016C0D9FF17C0DAFF2D0EDF6E164A172A65
:1015000016C0D9FF17C0DAFF000EDF6E1606D8A08E
:101510001706A6EF0AF016C0D9FF17C0DAFFDF5092
:10152000116E14C0D9FF15C0DAFF16C0E1FF17C055
:10153000E2FFDFCFE7FF1606D8A0170614C0D9FFD9
:1015400015C0DAFF11C0DFFF144A152A1650145CCB
:1015500017501558D8A0AFEF0AF0B1EF0AF08BEF93
:101560000AF01200000E956E000E026E020E016E61
:10157000000E046E000E036E1DEC08F0000E026EED
:10158000030E016E000E046E000E036E1DEC08F0DB
:10159000000E026E040E016E000E046E000E036E4D
:1015A0001DEC08F0000E026E050E016E000E046EBA
:1015B000000E036E1DEC08F0000E836E40EF0BF082
:1015C000010EF325F66EF76A060EF7220800F5CF36
:1015D00083FF000E026E020E016E000E046E010EFD
:1015E000036E1DEC08F0010E0001F46F5EEF0BF0CE
:1015F000010EF225F66EF76A060EF7220800F5CF07
:1016000083FF000E026E030E016E000E046E010ECB
:10161000036E1DEC08F0020E0001F46F5EEF0BF09C
:10162000010EF125F66EF76A060EF7220800F5CFD7
:1016300083FF000E026E040E016E000E046E010E9A
:10164000036E1DEC08F0030E0001F46F5EEF0BF06B
:10165000010EF025F66EF76A060EF7220800F5CFA8
:1016600083FF000E026E050E016E000E046E010E69
:10167000036E1DEC08F0000E0001F46F5EEF0BF03E
:101680000001F451076E086A0850000AD8B44BEF05
:101690000BF03BEF0BF00750000AD8B4E0EF0AF074
:1016A000010AD8B4F8EF0AF0030AD8B410EF0BF02F
:1016B000010AD8B428EF0BF03BEF0BF01200000E3C
:1016C0000A6E08BE68EF0BF066EF0BF072EF0BF0DE
:1016D000081E071E061E056C000E062207220822A1
:1016E000010E0A6E04BE79EF0BF077EF0BF083EF7B
:1016F0000BF0041E031E021E016C000E02220322C8
:101700000422010E0A1A000E0B6E000E0C6E000E63
:101710000D6E000E0E6E0550061007100810D8B49E
:1017200094EF0BF096EF0BF0CCEF0BF0010E096E7F
:10173000A0EF0BF0D8900536063607360836092A92
:1017400008AEA5EF0BF0A7EF0BF09AEF0BF0D890D7
:101750000B360C360D360E360550015C065002581D
:101760000750035808500458D8A0B9EF0BF0BBEF4E
:101770000BF0C4EF0BF00550015E0650025A075003
:10178000035A0850045A0B80D890083207320632A8
:101790000532092EA7EF0BF00A50D8B4D2EF0BF0A8
:1017A000D4EF0BF0DCEF0BF00E1E0D1E0C1E0B6CBD
:1017B000000E0C220D220E220BC001F00CC002F014
:1017C0000DC003F00EC004F01200000E0114096EEB
:1017D000000E02140A6E800E03140B6E7F0E0414AA
:1017E0000C6E09500A100B100C10D8A4FAEF0BF075
:1017F000FCEF0BF004EF0CF0000E016E000E026E19
:10180000000E036E000E046E000E0514096E000E2D
:1018100006140A6E800E07140B6E7F0E08140C6EF1
:1018200009500A100B100C10D8A419EF0CF01BEF84
:101830000CF023EF0CF0000E056E000E066E000E8D
:10184000076E000E086E04AE28EF0CF02AEF0CF0C5
:1018500033EF0CF0016C021ED8B0022A031ED8B080
:10186000032A800E045608AE38EF0CF03AEF0CF065
:1018700043EF0CF0056C061ED8B0062A071ED8B040
:10188000072A800E0856000E011A000E021A000EDA
:10189000031A800E041A000E051A000E061A000E16
:1018A000071A800E081A0550015C065002580750AE
:1018B000035808500458D8B060EF0CF062EF0CF0F9
:1018C00065EF0CF0D89066EF0CF0D8801200000E97
:1018D0007D6E100E7C6E000E016E000E026E08EC26
:1018E00012F001C074F002C075F003C076F004C0BD
:1018F00077F005C078F006C079F007C07AF008C02C
:101900007BF074C009F076C00AF09BEC12F0E3ECB7
:1019100012F0B3EC11F0C5EC0EF001EC13F00F0E69
:101920004AEC0EF0FEEC10F089EC0EF0D0EC10F06A
:10193000A2EC10F044EC09F0FCEC12F07C50011821
:1019400009E17D500218D8B4A8EF0CF0AAEF0CF012
:101950009AEF0CF0FCEC12F001C07CF002C07DF0BC
:101960007CAEB5EF0CF0B7EF0CF0BEEF0CF0010E53
:101970004AEC0EF0DCEC0CF0A2EC10F07CA6C3EF0D
:101980000CF0C5EF0CF0CEEF0CF0010E4AEC0EF0AF
:1019900089EC0EF02CEC11F0A2EC10F07DA0D3EF4E
:1019A0000CF0D5EF0CF09AEF0CF0010E4AEC0EF0B3
:1019B0009AEF0CF000EF00F0380E526EFF0E536EEF
:1019C000DDC054F0DEC055F052505426535055221D
:1019D00055BEF5EF0CF0555006E15404D8B0F3EFC6
:1019E0000CF0F5EF0CF0F9EF0CF012EC10F041EF09
:1019F0000DF021EE33F010EE56F00E0EDBCFE3FFCC
:101A0000E806FCE221EE24F010EE65F00E0EDBCFCE
:101A1000E3FFE806FCE2800E4AEC0EF0560E096E7B
:101A2000000E0A6E50EC12F0C00E4AEC0EF0650E7D
:101A3000096E000E0A6E50EC12F00001380EDD2720
:101A4000FF0EDE23630E72EC0FF0030E106EE80E35
:101A50000F6EC2EC12F0000E956E000E836E6DECF0
:101A600012F084EC12F0000E72EC0FF0000E106E0B
:101A7000000E0F6EC2EC12F08DEC05F0010E4AEC78
:101A80000EF01200000E066E04BE4BEF0DF049EF93
:101A90000DF051EF0DF0036C041ED8B0042A010EB6
:101AA000066E02BE58EF0DF056EF0DF05EEF0DF032
:101AB000016C021ED8B0022A010E061A000E086E32
:101AC000000E076E03500410D8B469EF0DF06BEFF1
:101AD0000DF093EF0DF0010E056E73EF0DF0D89041
:101AE00003360436052A04AE78EF0DF07AEF0DF0D8
:101AF0006FEF0DF0D890073608360350015C0450A4
:101B00000258D8A086EF0DF088EF0DF08DEF0DF0A4
:101B10000350015E0450025A0780D8900432033209
:101B2000052E7AEF0DF00650D8B499EF0DF09BEF2B
:101B30000DF09FEF0DF0076C081ED8B0082A07C003
:101B400001F008C002F01200000E186E14BEADEFD6
:101B50000DF0ABEF0DF0B3EF0DF0136C141ED8B019
:101B6000142A010E186E16BEBAEF0DF0B8EF0DF084
:101B7000BEEF0DF0156C161ED8B0162A15501610B3
:101B8000D8B4C5EF0DF0C7EF0DF0EBEF0DF0010E7F
:101B9000176ECFEF0DF0D89015361636172A16AE01
:101BA000D4EF0DF0D6EF0DF0CBEF0DF01550135C28
:101BB00016501458D8A0DFEF0DF0E1EF0DF0E5EF6F
:101BC0000DF01550135E1650145AD8901632153277
:101BD000172ED6EF0DF01850D8B4F1EF0DF0F3EF4B
:101BE0000DF0F7EF0DF0136C141ED8B0142A13C0CB
:101BF00013F014C014F0120073616C646F20696EEE
:101C00007375662E2E2E00000000000043415353D2
:101C1000494E4F20554E494645492121437573741D
:101C20006F3A202D3230302000000041706F737405
:101C3000616E646F000000000000437573746F3ABA
:101C4000202B3230302000000056432047414E48C0
:101C50004F55000000000000437573746F3A202D4B
:101C60003230302000000056432050455244455544
:101C700000000000000047414D45204F56455200EE
:101C8000000000000041706F73746520636F6D2069
:101C900032000000086E83CF07F0000E956E000E34
:101CA000026E220E016E000E046E000E036E1DEC1D
:101CB00008F008C083FF000E026E210E016E000EB8
:101CC000046E010E036E1DEC08F0000E026E210E74
:101CD000016E000E046E000E036E1DEC08F007C0CE
:101CE00083FF020E0818D8B478EF0EF07AEF0EF0EA
:101CF00082EF0EF00804D8A480EF0EF082EF0EF011
:101D000086EF0EF0D5EC12F088EF0EF0F0EC12F04A
:101D10001200010E4AEC0EF020EED7F010EE18F093
:101D2000050EDBCFE3FFE806FCE220EE1EF0090E15
:101D3000DE6AE806FDE2DDC009F0DEC00AF01E0E34
:101D40000B6E000E0C6E000E0E6E0A0E0D6E03EC86
:101D50000AF0800E4AEC0EF0180E096E000E0A6EA4
:101D600050EC12F0C00E4AEC0EF01E0E096E000E82
:101D70000A6E50EC12F02EEC12F02EEC12F02EEC5B
:101D800012F0010E4AEC0EF01200000E026E220E4E
:101D9000016E000E046E000E036EF6EC06F0000EEF
:101DA000026E210E016E000E046E000E036EF6EC44
:101DB00006F0000E956ED5EC12F0D5EC12F0D5ECD5
:101DC00012F0D5EC12F0D5EC12F0380E4AEC0EF011
:101DD000D5EC12F0D5EC12F0380E4AEC0EF0D5EC42
:101DE00012F0380E4AEC0EF0380E4AEC0EF0060EE9
:101DF0004AEC0EF00C0E4AEC0EF0010E4AEC0EF01E
:101E00001200000E066E000E056E03500410D8B4CA
:101E10000CEF0FF00EEF0FF036EF0FF0010E076E24
:101E200016EF0FF0D89003360436072A04AE1BEFE6
:101E30000FF01DEF0FF012EF0FF0D89005360636B9
:101E40000350015C04500258D8A029EF0FF02BEF8B
:101E50000FF030EF0FF00350015E0450025A05807E
:101E6000D89004320332072E1DEF0FF005C001F0A9
:101E700006C002F01200F6C001F0F7C002F0F8C090
:101E800003F0F9C004F02D0E056E7F0E066E950E60
:101E9000076E4C0E086EDDEC0FF0010E0124000100
:101EA000F66F000E0220F76F000E0320F86F000E91
:101EB0000420F96FF6C00FF0F7C010F0F8C011F071
:101EC000F9C012F0120E6AEF0FF0D89012321132F0
:101ED00010320F32E82E65EF0FF00FC00DF010C07A
:101EE0000EF012000A6E010ECB24016E026A000E83
:101EF00002220AC003F0046AAFEC12F001C00BF03A
:101F000002C00CF00BC001F00CC002F0000E046E19
:101F1000190E036E01EC0FF001C00BF002C00CF0C3
:101F2000FF0E0B16030E0C160BC008F00CC009F0C8
:101F3000D89009320832D890093208320850BE6E63
:101F40000BC008F0030E08160838F00BBD12120083
:101F500021EE51F010EE28F00E0EDBCFE3FFE80685
:101F6000FCE221EE42F010EE37F00E0EDBCFE3FF85
:101F7000E806FCE2800E4AEC0EF0280E096E000E18
:101F80000A6E50EC12F0C00E4AEC0EF0370E096EDD
:101F9000000E0A6E50EC12F02EEC12F02EEC12F045
:101FA0002EEC12F0010E4AEC0EF00001900EDD272F
:101FB000010EDE2389EC0EF01200000E096E000EF9
:101FC0000A6E000E0B6E000E0C6E01A0EAEF0FF011
:101FD000ECEF0FF0F4EF0FF00550092606500A223F
:101FE00007500B2208500C22D890053606360736CB
:101FF0000836D89004320332023201320150021006
:1020000003100410D8A407EF10F009EF10F0E5EF6B
:102010000FF009C001F00AC002F00BC003F00CC0C1
:1020200004F0120021EE7EF010EE3CF00E0EDBCF3D
:10203000E3FFE806FCE221EE00F010EE28F0130EBC
:10204000DBCFE3FFE806FCE2800E4AEC0EF03C0E2C
:10205000096E000E0A6E50EC12F0C00E4AEC0EF043
:10206000280E096E000E0A6E50EC12F02EEC12F0E3
:102070002EEC12F02EEC12F0010E4AEC0EF089EC70
:102080000EF0120021EE6FF010EE28F00E0EDBCFF6
:10209000E3FFE806FCE221EE60F010EE37F00E0EF2
:1020A000DBCFE3FFE806FCE2800E4AEC0EF0280EE0
:1020B000096E000E0A6E50EC12F0C00E4AEC0EF0E3
:1020C000370E096E000E0A6E50EC12F02EEC12F074
:1020D0002EEC12F02EEC12F0010E4AEC0EF089EC10
:1020E0000EF012004573706572616E646F0000003F
:1020F000000000706172612041504F5354415221E1
:102100000000436C6971756520656D203200000028
:102110000070617261206F2073616C646F00000059
:10212000436C6971756520656D20310000000042C7
:10213000656D2056696E646F20616F53616C646FCA
:032140003A8A02D6
:10214400010E4AEC0EF020EE80F010EE0CF00E0EB4
:10215400DBCFE3FFE806FCE221EE8DF010EE1BF08E
:102164000E0EDBCFE3FFE806FCE2800E4AEC0EF035
:102174000C0E096E000E0A6E50EC12F0C00E4AEC02
:102184000EF01B0E096E000E0A6E50EC12F02EECCF
:1021940012F02EEC12F02EEC12F0120020EEBCF035
:1021A40010EE0CF00E0EDBCFE3FFE806FCE220EEAF
:1021B400ADF010EE1BF00E0EDBCFE3FFE806FCE201
:1021C400800E4AEC0EF00C0E096E000E0A6E50ECF6
:1021D40012F0C00E4AEC0EF01B0E096E000E0A6ED1
:1021E40050EC12F02EEC12F02EEC12F02EEC12F059
:1021F400010E4AEC0EF0120020EECBF010EE1CF0B3
:102204000B0EDBCFE3FFE806FCE221EE14F010EE48
:102214000CF00F0EDBCFE3FFE806FCE2800E4AEC85
:102224000EF01C0E096E000E0A6E50EC12F0C00E79
:102234004AEC0EF00C0E096E000E0A6E50EC12F011
:102244002EEC12F02EEC12F02EEC12F0010E4AECF1
:102254000EF0120020EE9EF010EE0CF00E0EDBCF0E
:10226400E3FFE806FCE220EE8FF010EE1BF00E0E0A
:10227400DBCFE3FFE806FCE2800E4AEC0EF00C0E26
:10228400096E000E0A6E50EC12F0C00E4AEC0EF00D
:102294001B0E096E000E0A6E50EC12F02EEC12F0BA
:1022A4002EEC12F02EEC12F0010E4AEC0EF012009D
:1022B400F80EF66E1B0EF76E000EF86E01EE00F0CF
:1022C40010EE9CF00900F5CFEEFFE550E150FAE185
:1022D400E40EF66E200EF76E000EF86E00EE80F03F
:1022E40010EE5FF00900F5CFEEFFE550E150FAE1A2
:1022F40000EEDFF0170EEE6AE806FDE17F6A7E6A03
:10230400000EF86E000167EF0CF01A6E1950D8A495
:102314008EEF11F090EF11F092EF11F01AC0F3F07C
:102324001904D8A498EF11F09AEF11F09CEF11F072
:102334001AC0F2F0020E1918D8A4A3EF11F0A5EFF9
:1023440011F0A7EF11F01AC0F1F0030E1918D8A478
:10235400AEEF11F0B0EF11F0B2EF11F01AC0F0F0DF
:102364001200000E026E020E016E000E046E000ECC
:10237400036EF6EC06F0000E026E030E016E000E04
:10238400046E000E036EF6EC06F0000E026E040EF0
:10239400016E000E046E000E036EF6EC06F0000EE5
:1023A400026E050E016E000E046E000E036EF6EC56
:1023B40006F0000E956E1200076E83CF08F0000E33
:1023C400956E000E026E220E016E000E046E010E5A
:1023D400036E1DEC08F007C083FF000E026E210E91
:1023E400016E000E046E010E036E1DEC08F0000E6B
:1023F400026E210E016E000E046E000E036E1DECC3
:1024040008F008C083FFF0EC12F012000150021033
:10241400D8B40FEF12F011EF12F025EF12F001C053
:10242400D9FF02C0DAFFFF0EDE6EFF0EDE6EFF0E76
:10243400DE6EFF0EDE6EFF0EDE6EFF0EDE6EFF0E34
:10244400DE6EFF0EDD6E01680268036804680568CD
:102454000668076808681200000E016E000E026E1E
:10246400022A0228D8A439EF12F03BEF12F032EF1F
:1024740012F0000E026E022A0228D8A444EF12F0D1
:1024840046EF12F03DEF12F0012A0128D8A44DEFD7
:1024940012F04FEF12F030EF12F01200000E0B6E3C
:1024A4005EEF12F00B500924D96E000E0A20DA6E8A
:1024B400DF50DEEC11F00B2A0B500924D96E000E0C
:1024C4000A20DA6EDF50D8A46AEF12F06CEF12F033
:1024D40054EF12F012002EEC12F0810E046E000E76
:1024E400036E2EEC12F004C083FF04500424046E27
:1024F400032A070E036481EF12F083EF12F073EFE7
:1025040012F012002EEC12F0800E046E000E036E18
:102514002EEC12F004C083FFD8900430046E032A1A
:10252400070E036498EF12F09AEF12F08AEF12F09C
:102534001200FF0E0B6EFF0E0C6E09C00DF00AC0E8
:102544000EF00B500D260C500E220DC0F6F00EC0EE
:10255400F7F00001F86BF96B120001500302F3CF9E
:1025640005F0F4CF06F001500402F35006260250A1
:102574000302F350062605C001F006C002F0120063
:10258400480E016EE80E026E010E036E000E046E1C
:102594000FC005F010C006F0076A086A5FEC0BF084
:1025A4000104CB6E1200000E026EF0EC12F0022A4F
:1025B400310E0264E0EF12F0E2EF12F0D7EF12F006
:1025C40012009494030ECA12CA840C0EBD6E000E3F
:1025D400106E640E0F6EC2EC12F01200000E016E4B
:1025E400012A180E0164F9EF12F0FBEF12F0F2EF7A
:1025F40012F01200EDC001F0EEC002F01200070E5E
:0826040093160F0E951212004F
:020000040020DA
:08000000FFFFFFFFFFFFFFFF00
:020000040030CA
:0E000000FF027100FF8380FF0FC00FE00F4072
:00000001FF
